{
  "_format": "hh-sol-artifact-1",
  "contractName": "UtilityAgentUpgradeable",
  "sourceName": "contracts/utility-agent/UtilityAgentUpgradeable.sol",
  "abi": [
    {
      "inputs": [],
      "name": "InvalidData",
      "type": "error"
    },
    {
      "inputs": [],
      "name": "ZeroAddress",
      "type": "error"
    },
    {
      "anonymous": false,
      "inputs": [
        {
          "indexed": false,
          "internalType": "string",
          "name": "key",
          "type": "string"
        },
        {
          "indexed": false,
          "internalType": "string",
          "name": "value",
          "type": "string"
        }
      ],
      "name": "EndpointUpdate",
      "type": "event"
    },
    {
      "anonymous": false,
      "inputs": [
        {
          "indexed": false,
          "internalType": "uint8",
          "name": "version",
          "type": "uint8"
        }
      ],
      "name": "Initialized",
      "type": "event"
    },
    {
      "anonymous": false,
      "inputs": [
        {
          "indexed": true,
          "internalType": "address",
          "name": "previousOwner",
          "type": "address"
        },
        {
          "indexed": true,
          "internalType": "address",
          "name": "newOwner",
          "type": "address"
        }
      ],
      "name": "OwnershipTransferred",
      "type": "event"
    },
    {
      "anonymous": false,
      "inputs": [
        {
          "indexed": true,
          "internalType": "uint256",
          "name": "cfIndex",
          "type": "uint256"
        },
        {
          "components": [
            {
              "internalType": "address",
              "name": "contractAddress",
              "type": "address"
            },
            {
              "internalType": "string",
              "name": "filename",
              "type": "string"
            }
          ],
          "indexed": false,
          "internalType": "struct IUtilityAgent.StorageInfo",
          "name": "newInfo",
          "type": "tuple"
        }
      ],
      "name": "StorageInfoUpdate",
      "type": "event"
    },
    {
      "anonymous": false,
      "inputs": [
        {
          "indexed": false,
          "internalType": "string",
          "name": "newSystemPrompt",
          "type": "string"
        }
      ],
      "name": "SystemPromptUpdate",
      "type": "event"
    },
    {
      "inputs": [
        {
          "components": [
            {
              "internalType": "address",
              "name": "contractAddress",
              "type": "address"
            },
            {
              "internalType": "string",
              "name": "filename",
              "type": "string"
            }
          ],
          "internalType": "struct IUtilityAgent.StorageInfo",
          "name": "storageInfo",
          "type": "tuple"
        }
      ],
      "name": "addNewStorageInfo",
      "outputs": [],
      "stateMutability": "nonpayable",
      "type": "function"
    },
    {
      "inputs": [],
      "name": "fetchAllFileCodes",
      "outputs": [
        {
          "internalType": "string[]",
          "name": "filename",
          "type": "string[]"
        },
        {
          "internalType": "string[]",
          "name": "logic",
          "type": "string[]"
        }
      ],
      "stateMutability": "view",
      "type": "function"
    },
    {
      "inputs": [
        {
          "components": [
            {
              "internalType": "address",
              "name": "contractAddress",
              "type": "address"
            },
            {
              "internalType": "string",
              "name": "filename",
              "type": "string"
            }
          ],
          "internalType": "struct IUtilityAgent.StorageInfo",
          "name": "config",
          "type": "tuple"
        }
      ],
      "name": "fetchFileCodeFromConfig",
      "outputs": [
        {
          "internalType": "string",
          "name": "logic",
          "type": "string"
        }
      ],
      "stateMutability": "view",
      "type": "function"
    },
    {
      "inputs": [],
      "name": "getConfigsNumber",
      "outputs": [
        {
          "internalType": "uint256",
          "name": "",
          "type": "uint256"
        }
      ],
      "stateMutability": "view",
      "type": "function"
    },
    {
      "inputs": [
        {
          "internalType": "string",
          "name": "key",
          "type": "string"
        }
      ],
      "name": "getEndpoint",
      "outputs": [
        {
          "internalType": "string",
          "name": "value",
          "type": "string"
        }
      ],
      "stateMutability": "view",
      "type": "function"
    },
    {
      "inputs": [],
      "name": "getStorageInfo",
      "outputs": [
        {
          "components": [
            {
              "internalType": "address",
              "name": "contractAddress",
              "type": "address"
            },
            {
              "internalType": "string",
              "name": "filename",
              "type": "string"
            }
          ],
          "internalType": "struct IUtilityAgent.StorageInfo[]",
          "name": "configs",
          "type": "tuple[]"
        }
      ],
      "stateMutability": "view",
      "type": "function"
    },
    {
      "inputs": [
        {
          "components": [
            {
              "internalType": "address",
              "name": "contractAddress",
              "type": "address"
            },
            {
              "internalType": "string",
              "name": "filename",
              "type": "string"
            }
          ],
          "internalType": "struct IUtilityAgent.StorageInfo",
          "name": "config",
          "type": "tuple"
        }
      ],
      "name": "getStorageMode",
      "outputs": [
        {
          "internalType": "string",
          "name": "",
          "type": "string"
        }
      ],
      "stateMutability": "view",
      "type": "function"
    },
    {
      "inputs": [],
      "name": "getSystemPrompt",
      "outputs": [
        {
          "internalType": "string",
          "name": "",
          "type": "string"
        }
      ],
      "stateMutability": "view",
      "type": "function"
    },
    {
      "inputs": [
        {
          "internalType": "string",
          "name": "systemPrompt_",
          "type": "string"
        },
        {
          "components": [
            {
              "internalType": "address",
              "name": "contractAddress",
              "type": "address"
            },
            {
              "internalType": "string",
              "name": "filename",
              "type": "string"
            }
          ],
          "internalType": "struct IUtilityAgent.StorageInfo[]",
          "name": "storageInfos_",
          "type": "tuple[]"
        }
      ],
      "name": "initialize",
      "outputs": [],
      "stateMutability": "nonpayable",
      "type": "function"
    },
    {
      "inputs": [],
      "name": "owner",
      "outputs": [
        {
          "internalType": "address",
          "name": "",
          "type": "address"
        }
      ],
      "stateMutability": "view",
      "type": "function"
    },
    {
      "inputs": [],
      "name": "renounceOwnership",
      "outputs": [],
      "stateMutability": "nonpayable",
      "type": "function"
    },
    {
      "inputs": [
        {
          "internalType": "address",
          "name": "newOwner",
          "type": "address"
        }
      ],
      "name": "transferOwnership",
      "outputs": [],
      "stateMutability": "nonpayable",
      "type": "function"
    },
    {
      "inputs": [
        {
          "internalType": "string",
          "name": "key",
          "type": "string"
        },
        {
          "internalType": "string",
          "name": "value",
          "type": "string"
        }
      ],
      "name": "updateEndpoint",
      "outputs": [],
      "stateMutability": "nonpayable",
      "type": "function"
    },
    {
      "inputs": [
        {
          "internalType": "string[]",
          "name": "keys",
          "type": "string[]"
        },
        {
          "internalType": "string[]",
          "name": "values",
          "type": "string[]"
        }
      ],
      "name": "updateEndpoints",
      "outputs": [],
      "stateMutability": "nonpayable",
      "type": "function"
    },
    {
      "inputs": [
        {
          "internalType": "uint256",
          "name": "cfIndex",
          "type": "uint256"
        },
        {
          "components": [
            {
              "internalType": "address",
              "name": "contractAddress",
              "type": "address"
            },
            {
              "internalType": "string",
              "name": "filename",
              "type": "string"
            }
          ],
          "internalType": "struct IUtilityAgent.StorageInfo",
          "name": "storageInfo",
          "type": "tuple"
        }
      ],
      "name": "updateStorageInfo",
      "outputs": [],
      "stateMutability": "nonpayable",
      "type": "function"
    },
    {
      "inputs": [
        {
          "internalType": "string",
          "name": "systemPrompt",
          "type": "string"
        }
      ],
      "name": "updateSystemPrompt",
      "outputs": [],
      "stateMutability": "nonpayable",
      "type": "function"
    }
  ],
  "bytecode": "0x608080604052346100165761236d908161001c8239f35b600080fdfe6080604052600436101561001257600080fd5b60003560e01c806307679a64146101175780631006c98b146101125780635aa69c171461010d5780636cece16314610108578063715018a61461010357806376a30029146100fe578063816dea16146100f95780638da5cb5b146100f4578063a7a707f4146100ef578063aab24f97146100ea578063ba84ddbf146100e5578063be2d4464146100e0578063e702c420146100db578063edfa037f146100d6578063f2fde38b146100d15763f9be7f6d146100cc57600080fd5b6112db565b6111ef565b6110fa565b610f5f565b610e78565b610e5f565b610c2b565b610c12565b610b18565b610982565b610693565b6105f4565b6103e6565b6103a2565b6102c6565b61018e565b919082519283825260005b8481106101665750507fffffffffffffffffffffffffffffffffffffffffffffffffffffffffffffffe0601f8460006020809697860101520116010190565b602081830181015184830182015201610127565b90602061018b92818152019061011c565b90565b346102b3576000807ffffffffffffffffffffffffffffffffffffffffffffffffffffffffffffffffc3601126102b0576040519080606554906101d082611563565b80855291602091600191828116908115610265575060011461020d575b610209866101fd8188038261089b565b6040519182918261017a565b0390f35b9350606584527f8ff97419363ffd7000167f130ef7168fbea05faf9251824ca5043f113cc6a7c75b838510610252575050505081016020016101fd82610209386101ed565b8054868601840152938201938101610235565b879650610209979450602093506101fd9592507fffffffffffffffffffffffffffffffffffffffffffffffffffffffffffffff0091501682840152151560051b8201019293386101ed565b80fd5b600080fd5b908160409103126102b35790565b346102b35760207ffffffffffffffffffffffffffffffffffffffffffffffffffffffffffffffffc3601126102b35760043567ffffffffffffffff81116102b3576103186103259136906004016102b8565b610320611e0e565b611f78565b005b9181601f840112156102b35782359167ffffffffffffffff83116102b357602083818601950101116102b357565b60207ffffffffffffffffffffffffffffffffffffffffffffffffffffffffffffffffc8201126102b3576004359067ffffffffffffffff82116102b35761039e91600401610327565b9091565b346102b3576102096103d260206103b836610355565b9190826040519384928337810160668152030190206115b6565b60405191829160208352602083019061011c565b346102b35760407ffffffffffffffffffffffffffffffffffffffffffffffffffffffffffffffffc3601126102b35767ffffffffffffffff6004358181116102b357610436903690600401610327565b906024358381116102b35761044f903690600401610327565b93610458611e0e565b6040518484823784810190606682526020818193030190209186116105ef5761048b866104858454611563565b846116ec565b600090601f871160011461051f5750918591610500837f9db1902c64383c2dd35b70e6329e4511000fe9f53761fa099fd0559951be83709861050f96600091610514575b507fffffffffffffffffffffffffffffffffffffffffffffffffffffffffffffffff8260011b9260031b1c19161790565b90555b60405194859485611781565b0390a1005b9050840135386104cf565b907fffffffffffffffffffffffffffffffffffffffffffffffffffffffffffffffe0871661055284600052602060002090565b9282905b8282106105d7575050918793917f9db1902c64383c2dd35b70e6329e4511000fe9f53761fa099fd0559951be83709861050f96941061059f575b5050600183811b019055610503565b7fffffffffffffffffffffffffffffffffffffffffffffffffffffffffffffffff60f88660031b161c19908401351690553880610590565b80600185968294968a01358155019501930190610556565b610834565b346102b3576000807ffffffffffffffffffffffffffffffffffffffffffffffffffffffffffffffffc3601126102b05761062c611e0e565b8073ffffffffffffffffffffffffffffffffffffffff6033547fffffffffffffffffffffffff00000000000000000000000000000000000000008116603355167f8be0079c531659141344cd1fd0a4f28419497f9722a3daafe3b4186f6b6457e08280a380f35b346102b3576106a136610355565b6106a9611e0e565b67ffffffffffffffff81116105ef576106cc816106c7606554611563565b61167a565b600091601f82116001146107575761073982807fdf5a31f32f865da404304d8e717e689823eab72d259d756d85fc552ef9ac78d89560009161074c57507fffffffffffffffffffffffffffffffffffffffffffffffffffffffffffffffff8260011b9260031b1c19161790565b6065555b61050f604051928392836121cd565b9050830135386104cf565b60656000527f8ff97419363ffd7000167f130ef7168fbea05faf9251824ca5043f113cc6a7c77fffffffffffffffffffffffffffffffffffffffffffffffffffffffffffffffe08316845b81811061081c575093837fdf5a31f32f865da404304d8e717e689823eab72d259d756d85fc552ef9ac78d895106107e4575b5050600182811b0160655561073d565b7fffffffffffffffffffffffffffffffffffffffffffffffffffffffffffffffff60f88560031b161c199083013516905538806107d4565b838601358355602095860195600190930192016107a2565b7f4e487b7100000000000000000000000000000000000000000000000000000000600052604160045260246000fd5b6040810190811067ffffffffffffffff8211176105ef57604052565b6060810190811067ffffffffffffffff8211176105ef57604052565b90601f7fffffffffffffffffffffffffffffffffffffffffffffffffffffffffffffffe0910116810190811067ffffffffffffffff8211176105ef57604052565b81601f820112156102b35780359067ffffffffffffffff82116105ef576040519261092f60207fffffffffffffffffffffffffffffffffffffffffffffffffffffffffffffffe0601f860116018561089b565b828452602083830101116102b357816000926020809301838601378301015290565b9181601f840112156102b35782359167ffffffffffffffff83116102b3576020808501948460051b0101116102b357565b346102b35760407ffffffffffffffffffffffffffffffffffffffffffffffffffffffffffffffffc3601126102b35767ffffffffffffffff6004358181116102b3576109d29036906004016108dc565b906024359081116102b3576109ee610a4e913690600401610951565b9060005493610a1460ff8660081c161580968197610b0a575b8115610aea575b506117a8565b84610a4560017fffffffffffffffffffffffffffffffffffffffffffffffffffffffffffffff006000541617600055565b610ab4576118a7565b610a5457005b610a817fffffffffffffffffffffffffffffffffffffffffffffffffffffffffffff00ff60005416600055565b604051600181527f7f26b83ff96e1f2b6a682f133852f6798a09c465da95921460cefb384740249890806020810161050f565b610ae56101007fffffffffffffffffffffffffffffffffffffffffffffffffffffffffffff00ff6000541617600055565b6118a7565b303b15915081610afc575b5038610a0e565b6001915060ff161438610af5565b600160ff8216109150610a07565b346102b35760007ffffffffffffffffffffffffffffffffffffffffffffffffffffffffffffffffc3601126102b357602073ffffffffffffffffffffffffffffffffffffffff60335416604051908152f35b73ffffffffffffffffffffffffffffffffffffffff8116036102b357565b7ffffffffffffffffffffffffffffffffffffffffffffffffffffffffffffffffc6020818301126102b3576004359167ffffffffffffffff918284116102b35760409084830301126102b35760405192610be184610863565b8060040135610bef81610b6a565b845260248101359283116102b357610c0a92016004016108dc565b602082015290565b346102b3576102096103d2610c2636610b88565b611a74565b346102b3576040807ffffffffffffffffffffffffffffffffffffffffffffffffffffffffffffffffc3601126102b35767ffffffffffffffff906004358281116102b357610c7d903690600401610951565b90916024358481116102b357610c97903690600401610951565b949092610ca2611e0e565b60005b818110610cae57005b610cb9818388611b22565b90610cc5838a89611b22565b90610cce611e0e565b8751848482378085810160668152602092839103019020908884116105ef57610cfb846104858454611563565b600090601f8511600114610d8b5750927f9db1902c64383c2dd35b70e6329e4511000fe9f53761fa099fd0559951be83709492610d8292610d74838060019b9a9860009161051457507fffffffffffffffffffffffffffffffffffffffffffffffffffffffffffffffff8260011b9260031b1c19161790565b90555b8a5194859485611781565b0390a101610ca5565b907fffffffffffffffffffffffffffffffffffffffffffffffffffffffffffffffe08516610dbe84600052602060002090565b9282905b828210610e475750509285927f9db1902c64383c2dd35b70e6329e4511000fe9f53761fa099fd0559951be837097959260019a9997610d829610610e0f575b50508883811b019055610d77565b7fffffffffffffffffffffffffffffffffffffffffffffffffffffffffffffffff60f88660031b161c19908401351690553880610e01565b80600185968294968a01358155019501930190610dc2565b346102b3576102096103d2610e7336610b88565b611c56565b346102b35760007ffffffffffffffffffffffffffffffffffffffffffffffffffffffffffffffffc3601126102b3576020606754604051908152f35b6020808201908083528351809252604092604081018260408560051b8401019601946000925b858410610eeb575050505050505090565b909192939495968580610f4e837fffffffffffffffffffffffffffffffffffffffffffffffffffffffffffffffc0866001960301885286838d5173ffffffffffffffffffffffffffffffffffffffff81511684520151918185820152019061011c565b990194019401929594939190610eda565b346102b3576000807ffffffffffffffffffffffffffffffffffffffffffffffffffffffffffffffffc3601126102b057606754610f9b81611b39565b916040610fab604051948561089b565b8284527fffffffffffffffffffffffffffffffffffffffffffffffffffffffffffffffe0610fd884611b39565b0190825b828110611037575050505b818110610ffc57604051806102098582610eb4565b8061101b6110166001936000526068602052604060002090565b611d6c565b6110258286611d58565b526110308185611d58565b5001610fe7565b602090825161104581610863565b85815282606081830152828901015201610fdc565b90808251908181526020809101926020808460051b8301019501936000915b8483106110895750505050505090565b90919293949584806110c5837fffffffffffffffffffffffffffffffffffffffffffffffffffffffffffffffe086600196030187528a5161011c565b9801930193019194939290611079565b90916110ec61018b9360408452604084019061105a565b91602081840391015261105a565b346102b3576000807ffffffffffffffffffffffffffffffffffffffffffffffffffffffffffffffffc3601126102b05760675461113681611da7565b9061114081611da7565b92805b82811061115c57505050610209604051928392836110d5565b8060019183526111d3606860208181526111ca8560409361118082868b20016115b6565b61118a888d611d58565b52611195878c611d58565b5086895283528388209351936111aa85610863565b73ffffffffffffffffffffffffffffffffffffffff8154168552016115b6565b90820152611c56565b6111dd8288611d58565b526111e88187611d58565b5001611143565b346102b35760207ffffffffffffffffffffffffffffffffffffffffffffffffffffffffffffffffc3601126102b35760043561122a81610b6a565b611232611e0e565b73ffffffffffffffffffffffffffffffffffffffff8116156112575761032590612160565b60846040517f08c379a000000000000000000000000000000000000000000000000000000000815260206004820152602660248201527f4f776e61626c653a206e6577206f776e657220697320746865207a65726f206160448201527f64647265737300000000000000000000000000000000000000000000000000006064820152fd5b346102b35760407ffffffffffffffffffffffffffffffffffffffffffffffffffffffffffffffffc3601126102b35767ffffffffffffffff6004356024358281116102b35761132e9036906004016102b8565b611336611e0e565b606754821015611539576000928284526020606860205260408520906113a1843561136081610b6a565b839073ffffffffffffffffffffffffffffffffffffffff167fffffffffffffffffffffffff0000000000000000000000000000000000000000825416179055565b6001809201926113b46020860186611ad1565b93909184116105ef576113d1846113cb8754611563565b876116ec565b8792601f8511600114611466575050827f3fe2087e82e481aaf992df5fc081662871648262a7de10078503707a657fa24b95936114559593611446938a9261145b575b50507fffffffffffffffffffffffffffffffffffffffffffffffffffffffffffffffff8260011b9260031b1c19161790565b90555b60405191829182611e8d565b0390a280f35b013590503880611414565b92907fffffffffffffffffffffffffffffffffffffffffffffffffffffffffffffffe085169061149b87600052602060002090565b948a915b838310611522575050509260019285927f3fe2087e82e481aaf992df5fc081662871648262a7de10078503707a657fa24b98966114559896106114ea575b505050811b019055611449565b7fffffffffffffffffffffffffffffffffffffffffffffffffffffffffffffffff60f88560031b161c199101351690553880806114dd565b85850135875595860195938101939181019161149f565b60046040517f5cb045db000000000000000000000000000000000000000000000000000000008152fd5b90600182811c921680156115ac575b602083101461157d57565b7f4e487b7100000000000000000000000000000000000000000000000000000000600052602260045260246000fd5b91607f1691611572565b906040519182600082546115c981611563565b9081845260209460019160018116908160001461163957506001146115fa575b5050506115f89250038361089b565b565b600090815285812095935091905b8183106116215750506115f893508201013880806115e9565b85548884018501529485019487945091830191611608565b9150506115f89593507fffffffffffffffffffffffffffffffffffffffffffffffffffffffffffffff0091501682840152151560051b8201013880806115e9565b601f8111611686575050565b60009060656000527f8ff97419363ffd7000167f130ef7168fbea05faf9251824ca5043f113cc6a7c7906020601f850160051c830194106116e2575b601f0160051c01915b8281106116d757505050565b8181556001016116cb565b90925082906116c2565b90601f81116116fa57505050565b6000916000526020600020906020601f850160051c83019410611738575b601f0160051c01915b82811061172d57505050565b818155600101611721565b9092508290611718565b601f82602094937fffffffffffffffffffffffffffffffffffffffffffffffffffffffffffffffe0938186528686013760008582860101520116010190565b929061179a9061018b9593604086526040860191611742565b926020818503910152611742565b156117af57565b60846040517f08c379a000000000000000000000000000000000000000000000000000000000815260206004820152602e60248201527f496e697469616c697a61626c653a20636f6e747261637420697320616c72656160448201527f647920696e697469616c697a65640000000000000000000000000000000000006064820152fd5b7f4e487b7100000000000000000000000000000000000000000000000000000000600052603260045260246000fd5b91908110156118a25760051b810135907fffffffffffffffffffffffffffffffffffffffffffffffffffffffffffffffc1813603018212156102b3570190565b611833565b92916118c360ff60005460081c166118be816121de565b6121de565b6118cc33612160565b835167ffffffffffffffff81116105ef576118ec816106c7606554611563565b602080601f83116001146119725750819061193d939495966000926119675750507fffffffffffffffffffffffffffffffffffffffffffffffffffffffffffffffff8260011b9260031b1c19161790565b6065555b60005b81811061195057505050565b806119616103206001938587611862565b01611944565b015190503880611414565b907fffffffffffffffffffffffffffffffffffffffffffffffffffffffffffffffe08316966119c360656000527f8ff97419363ffd7000167f130ef7168fbea05faf9251824ca5043f113cc6a7c790565b926000905b898210611a2357505083600195969798106119ec575b505050811b01606555611941565b01517fffffffffffffffffffffffffffffffffffffffffffffffffffffffffffffffff60f88460031b161c191690553880806119de565b806001859682949686015181550195019301906119c8565b60405190611a4882610863565b600482527f69706673000000000000000000000000000000000000000000000000000000006020830152565b5173ffffffffffffffffffffffffffffffffffffffff1615611ac957604051611a9c81610863565b600281527f6673000000000000000000000000000000000000000000000000000000000000602082015290565b61018b611a3b565b9035907fffffffffffffffffffffffffffffffffffffffffffffffffffffffffffffffe1813603018212156102b3570180359067ffffffffffffffff82116102b3576020019181360383136102b357565b908210156118a25761039e9160051b810190611ad1565b67ffffffffffffffff81116105ef5760051b60200190565b519063ffffffff821682036102b357565b602080828403126102b357815167ffffffffffffffff928382116102b357019260409283858303126102b357835194611b9a86610863565b80518652838101519182116102b3570181601f820112156102b357805191611bc183611b39565b94611bce8151968761089b565b83865284860191856060809602850101938185116102b3578601925b848410611bfd5750505050505082015290565b85848303126102b3578686918451611c148161087f565b8651611c1f81610b6a565b8152611c2c838801611b51565b83820152611c3b868801611b51565b86820152815201930192611bea565b6040513d6000823e3d90fd5b611c5f81611a74565b60208151910120611c6e611a3b565b6020815191012014600014611c84576020015190565b6000816020611cdc611cc373ffffffffffffffffffffffffffffffffffffffff611d1496511673ffffffffffffffffffffffffffffffffffffffff1690565b73ffffffffffffffffffffffffffffffffffffffff1690565b9101519060405180809581947fe0876aa80000000000000000000000000000000000000000000000000000000083526004830161017a565b03915afa8015611d535761018b91600091611d30575b50612269565b611d4d91503d806000833e611d45818361089b565b810190611b62565b38611d2a565b611c4a565b80518210156118a25760209160051b010190565b90604051611d7981610863565b6020611da26001839573ffffffffffffffffffffffffffffffffffffffff8154168552016115b6565b910152565b90611db182611b39565b611dbe604051918261089b565b8281527fffffffffffffffffffffffffffffffffffffffffffffffffffffffffffffffe0611dec8294611b39565b019060005b828110611dfd57505050565b806060602080938501015201611df1565b73ffffffffffffffffffffffffffffffffffffffff603354163303611e2f57565b60646040517f08c379a000000000000000000000000000000000000000000000000000000000815260206004820152602060248201527f4f776e61626c653a2063616c6c6572206973206e6f7420746865206f776e65726044820152fd5b906020825273ffffffffffffffffffffffffffffffffffffffff8135611eb281610b6a565b16602083015260208101357fffffffffffffffffffffffffffffffffffffffffffffffffffffffffffffffe1823603018112156102b357016020813591019067ffffffffffffffff81116102b35780360382136102b35760608360408061018b9601520191611742565b7fffffffffffffffffffffffffffffffffffffffffffffffffffffffffffffffff8114611f495760010190565b7f4e487b7100000000000000000000000000000000000000000000000000000000600052601160045260246000fd5b606754600052602060686020526040600020611fd98335611f9881610b6a565b829073ffffffffffffffffffffffffffffffffffffffff167fffffffffffffffffffffffff0000000000000000000000000000000000000000825416179055565b600180910191611fec6020850185611ad1565b9267ffffffffffffffff84116105ef5761200a846113cb8754611563565b600092601f85116001146120a8575050926120658361209b946115f897946120a39760009261145b5750507fffffffffffffffffffffffffffffffffffffffffffffffffffffffffffffffff8260011b9260031b1c19161790565b90555b7f3fe2087e82e481aaf992df5fc081662871648262a7de10078503707a657fa24b60675492839260405191829182611e8d565b0390a2611f1c565b606755565b92907fffffffffffffffffffffffffffffffffffffffffffffffffffffffffffffffe08516906120dd87600052602060002090565b9483915b83831061214957505050936115f896936120a396936001938361209b9810612111575b505050811b019055612068565b7fffffffffffffffffffffffffffffffffffffffffffffffffffffffffffffffff60f88560031b161c19910135169055388080612104565b8585013587559586019593810193918101916120e1565b6033549073ffffffffffffffffffffffffffffffffffffffff80911691827fffffffffffffffffffffffff0000000000000000000000000000000000000000821617603355167f8be0079c531659141344cd1fd0a4f28419497f9722a3daafe3b4186f6b6457e0600080a3565b91602061018b938181520191611742565b156121e557565b60846040517f08c379a000000000000000000000000000000000000000000000000000000000815260206004820152602b60248201527f496e697469616c697a61626c653a20636f6e7472616374206973206e6f74206960448201527f6e697469616c697a696e670000000000000000000000000000000000000000006064820152fd5b906020809201518051906020916040805195600080945b8486106122bf57505050505050601f7fffffffffffffffffffffffffffffffffffffffffffffffffffffffffffffffe091828101855201168201604052565b909192939495838760051b8301015180518686830151920151813b808211612300575082849392600195938e930394859301903c0196019493929190612280565b9260849387937f86d14d89000000000000000000000000000000000000000000000000000000008552600452602452604452606452fdfea264697066735822122007e673a49285810b4cdac22776e3e83c9097ac663e97a5975394e0c19290937764736f6c63430008160033",
  "linkReferences": {},
  "deployedLinkReferences": {}
}