{
    "abi": [
        {
            "type": "function",
            "name": "act",
            "inputs": [
                {
                    "name": "uuid",
                    "type": "bytes32",
                    "internalType": "bytes32"
                },
                {
                    "name": "executeData",
                    "type": "bytes",
                    "internalType": "bytes"
                }
            ],
            "outputs": [
                {
                    "name": "",
                    "type": "uint256",
                    "internalType": "uint256"
                }
            ],
            "stateMutability": "nonpayable"
        },
        {
            "type": "function",
            "name": "act",
            "inputs": [
                {
                    "name": "uuid",
                    "type": "bytes32",
                    "internalType": "bytes32"
                },
                {
                    "name": "data",
                    "type": "bytes",
                    "internalType": "bytes"
                },
                {
                    "name": "signature",
                    "type": "bytes",
                    "internalType": "bytes"
                }
            ],
            "outputs": [
                {
                    "name": "",
                    "type": "uint256",
                    "internalType": "uint256"
                }
            ],
            "stateMutability": "payable"
        },
        {
            "type": "function",
            "name": "eip712Domain",
            "inputs": [],
            "outputs": [
                {
                    "name": "fields",
                    "type": "bytes1",
                    "internalType": "bytes1"
                },
                {
                    "name": "name",
                    "type": "string",
                    "internalType": "string"
                },
                {
                    "name": "version",
                    "type": "string",
                    "internalType": "string"
                },
                {
                    "name": "chainId",
                    "type": "uint256",
                    "internalType": "uint256"
                },
                {
                    "name": "verifyingContract",
                    "type": "address",
                    "internalType": "address"
                },
                {
                    "name": "salt",
                    "type": "bytes32",
                    "internalType": "bytes32"
                },
                {
                    "name": "extensions",
                    "type": "uint256[]",
                    "internalType": "uint256[]"
                }
            ],
            "stateMutability": "view"
        },
        {
            "type": "function",
            "name": "getHashToSign",
            "inputs": [
                {
                    "name": "uuid",
                    "type": "bytes32",
                    "internalType": "bytes32"
                },
                {
                    "name": "data",
                    "type": "bytes",
                    "internalType": "bytes"
                }
            ],
            "outputs": [
                {
                    "name": "",
                    "type": "bytes32",
                    "internalType": "bytes32"
                }
            ],
            "stateMutability": "view"
        },
        {
            "type": "function",
            "name": "getPromptId",
            "inputs": [
                {
                    "name": "uuid",
                    "type": "bytes32",
                    "internalType": "bytes32"
                }
            ],
            "outputs": [
                {
                    "name": "",
                    "type": "uint256",
                    "internalType": "uint256"
                }
            ],
            "stateMutability": "view"
        },
        {
            "type": "function",
            "name": "initialize",
            "inputs": [
                {
                    "name": "name_",
                    "type": "string",
                    "internalType": "string"
                },
                {
                    "name": "version_",
                    "type": "string",
                    "internalType": "string"
                },
                {
                    "name": "gateway_",
                    "type": "address",
                    "internalType": "contract IHybridGateway"
                }
            ],
            "outputs": [],
            "stateMutability": "nonpayable"
        },
        {
            "type": "function",
            "name": "owner",
            "inputs": [],
            "outputs": [
                {
                    "name": "",
                    "type": "address",
                    "internalType": "address"
                }
            ],
            "stateMutability": "view"
        },
        {
            "type": "function",
            "name": "renounceOwnership",
            "inputs": [],
            "outputs": [],
            "stateMutability": "nonpayable"
        },
        {
            "type": "function",
            "name": "transferOwnership",
            "inputs": [
                {
                    "name": "newOwner",
                    "type": "address",
                    "internalType": "address"
                }
            ],
            "outputs": [],
            "stateMutability": "nonpayable"
        },
        {
            "type": "event",
            "name": "EIP712DomainChanged",
            "inputs": [],
            "anonymous": false
        },
        {
            "type": "event",
            "name": "ExecutionRequested",
            "inputs": [
                {
                    "name": "actId",
                    "type": "uint256",
                    "indexed": true,
                    "internalType": "uint256"
                },
                {
                    "name": "uuid",
                    "type": "bytes32",
                    "indexed": true,
                    "internalType": "bytes32"
                },
                {
                    "name": "creator",
                    "type": "address",
                    "indexed": true,
                    "internalType": "address"
                },
                {
                    "name": "data",
                    "type": "bytes",
                    "indexed": false,
                    "internalType": "bytes"
                }
            ],
            "anonymous": false
        },
        {
            "type": "event",
            "name": "Initialized",
            "inputs": [
                {
                    "name": "version",
                    "type": "uint8",
                    "indexed": false,
                    "internalType": "uint8"
                }
            ],
            "anonymous": false
        },
        {
            "type": "event",
            "name": "OwnershipTransferred",
            "inputs": [
                {
                    "name": "previousOwner",
                    "type": "address",
                    "indexed": true,
                    "internalType": "address"
                },
                {
                    "name": "newOwner",
                    "type": "address",
                    "indexed": true,
                    "internalType": "address"
                }
            ],
            "anonymous": false
        },
        {
            "type": "event",
            "name": "SolutionSubmitted",
            "inputs": [
                {
                    "name": "actId",
                    "type": "uint256",
                    "indexed": true,
                    "internalType": "uint256"
                },
                {
                    "name": "processor",
                    "type": "address",
                    "indexed": true,
                    "internalType": "address"
                },
                {
                    "name": "result",
                    "type": "bytes",
                    "indexed": false,
                    "internalType": "bytes"
                }
            ],
            "anonymous": false
        },
        {
            "type": "event",
            "name": "WorkerUpdated",
            "inputs": [
                {
                    "name": "oldWorker",
                    "type": "address",
                    "indexed": true,
                    "internalType": "address"
                },
                {
                    "name": "newWorker",
                    "type": "address",
                    "indexed": true,
                    "internalType": "address"
                }
            ],
            "anonymous": false
        },
        {
            "type": "error",
            "name": "DuplicateUuid",
            "inputs": []
        },
        {
            "type": "error",
            "name": "InsufficientBalance",
            "inputs": []
        },
        {
            "type": "error",
            "name": "InvalidAmount",
            "inputs": []
        },
        {
            "type": "error",
            "name": "InvalidExternalDataLength",
            "inputs": []
        },
        {
            "type": "error",
            "name": "InvalidRequestStatus",
            "inputs": []
        },
        {
            "type": "error",
            "name": "InvalidSignature",
            "inputs": []
        },
        {
            "type": "error",
            "name": "InvalidUuid",
            "inputs": []
        },
        {
            "type": "error",
            "name": "Timeout",
            "inputs": []
        },
        {
            "type": "error",
            "name": "Unauthorized",
            "inputs": []
        },
        {
            "type": "error",
            "name": "ZeroAddress",
            "inputs": []
        }
    ],
    "bytecode": {
        "object": "0x608080604052346015576110f1908161001a8239f35b5f80fdfe60806040526004361015610011575f80fd5b5f5f3560e01c8063077f224a146104285780633461813d146103dd578063715018a61461038257806384b0196e146102765780638da5cb5b1461024e578063d19834fc146101c0578063e0839ca114610181578063f2fde38b146100ea5763fea5ef991461007d575f80fd5b60603660031901126100e35760243567ffffffffffffffff81116100e6576100a990369060040161091c565b90916044359067ffffffffffffffff82116100e35760206100db85856100d236600488016108da565b91600435610a78565b604051908152f35b80fd5b5080fd5b50346100e35760203660031901126100e3576004356001600160a01b03811680820361017d57610118610c7c565b156101295761012690610cd4565b80f35b60405162461bcd60e51b815260206004820152602660248201527f4f776e61626c653a206e6577206f776e657220697320746865207a65726f206160448201526564647265737360d01b6064820152608490fd5b8280fd5b50346100e35760403660031901126100e3576024359067ffffffffffffffff82116100e35760206100db6101b836600486016108da565b60043561094a565b346102275760403660031901126102275760243567ffffffffffffffff8111610227576101f190369060040161091c565b6041811061023f5760401981019181831161022b57818311610227576020926100d26100db936040199084010160413691610894565b5f80fd5b634e487b7160e01b5f52601160045260245ffd5b63099f6dd560e31b5f5260045ffd5b34610227575f366003190112610227576033546040516001600160a01b039091168152602090f35b34610227575f366003190112610227576065541580610378575b1561033b576102df6102a0610d1c565b6102a8610dc0565b60206102ed604051926102bb8385610872565b5f84525f368137604051958695600f60f81b875260e08588015260e08701906108f8565b9085820360408701526108f8565b4660608501523060808501525f60a085015283810360c08501528180845192838152019301915f5b82811061032457505050500390f35b835185528695509381019392810192600101610315565b60405162461bcd60e51b81526020600482015260156024820152741152540dcc4c8e88155b9a5b9a5d1a585b1a5e9959605a1b6044820152606490fd5b5060665415610290565b34610227575f3660031901126102275761039a610c7c565b603380546001600160a01b031981169091555f906001600160a01b03167f8be0079c531659141344cd1fd0a4f28419497f9722a3daafe3b4186f6b6457e08280a3005b3461022757602036600319011261022757600435805f52609960205260405f205415610419575f526099602052602060405f2054604051908152f35b6341ba517160e11b5f5260045ffd5b346102275760603660031901126102275760043567ffffffffffffffff8111610227576104599036906004016108da565b60243567ffffffffffffffff8111610227576104799036906004016108da565b6044356001600160a01b03811690819003610227575f549060ff8260081c161591828093610865575b801561084e575b156107f25760ff1981166001175f55826107e1575b506104d860ff5f5460081c166104d381610be4565b610be4565b6104e133610cd4565b6104f160ff5f5460081c16610be4565b835167ffffffffffffffff81116106ec5761050d606754610c44565b601f8111610779575b50602094601f821160011461070b579481929394955f92610700575b50508160011b915f199060031b1c1916176067555b825167ffffffffffffffff81116106ec57610563606854610c44565b601f8111610684575b506020601f821160011461061657819293945f9261060b575b50508160011b915f199060031b1c1916176068555b5f6065555f60665580156105fc576bffffffffffffffffffffffff60a01b609a541617609a556105c657005b61ff00195f54165f557f7f26b83ff96e1f2b6a682f133852f6798a09c465da95921460cefb3847402498602060405160018152a1005b63d92e233d60e01b5f5260045ffd5b015190508480610585565b601f1982169060685f525f51602061109c5f395f51905f52915f5b81811061066c57509583600195969710610654575b505050811b0160685561059a565b01515f1960f88460031b161c19169055848080610646565b9192602060018192868b015181550194019201610631565b60685f52601f820160051c5f51602061109c5f395f51905f520190602083106106d7575b601f0160051c5f51602061109c5f395f51905f5201905b8181106106cc575061056c565b5f81556001016106bf565b5f51602061109c5f395f51905f5291506106a8565b634e487b7160e01b5f52604160045260245ffd5b015190508580610532565b601f1982169560675f525f51602061107c5f395f51905f52915f5b88811061076157508360019596979810610749575b505050811b01606755610547565b01515f1960f88460031b161c1916905585808061073b565b91926020600181928685015181550194019201610726565b60675f52601f820160051c5f51602061107c5f395f51905f520190602083106107cc575b601f0160051c5f51602061107c5f395f51905f5201905b8181106107c15750610516565b5f81556001016107b4565b5f51602061107c5f395f51905f52915061079d565b61ffff1916610101175f55846104be565b60405162461bcd60e51b815260206004820152602e60248201527f496e697469616c697a61626c653a20636f6e747261637420697320616c72656160448201526d191e481a5b9a5d1a585b1a5e995960921b6064820152608490fd5b50303b1580156104a95750600160ff8216146104a9565b50600160ff8216106104a2565b90601f8019910116810190811067ffffffffffffffff8211176106ec57604052565b92919267ffffffffffffffff82116106ec57604051916108be601f8201601f191660200184610872565b829481845281830111610227578281602093845f960137010152565b9080601f83011215610227578160206108f593359101610894565b90565b805180835260209291819084018484015e5f828201840152601f01601f1916010190565b9181601f840112156102275782359167ffffffffffffffff8311610227576020838186019501011161022757565b604051906040820182811067ffffffffffffffff8211176106ec576042936109c8926109d69260405284526020840190815260405192839160208301957fd4804106ee331eee8e2877cf879bb5c1d679d0ea7cd1f7bf46349111f5fbeb2a8752604080850152516060840152516040608084015260a08301906108f8565b03601f198101835282610872565b5190206109e161100a565b6109e9611055565b6040519060208201927f8b73c3c69bb8fe3d512ecc4cf759cc79239f7b179b0ffacaa9a75d522b39400f8452604083015260608201524660808201523060a082015260a08152610a3a60c082610872565b519020906040519161190160f01b8352600283015260228201522090565b908060209392818452848401375f828201840152601f01601f1916010190565b90929192815f52609960205260405f2054610bd557610abc610ac493835f526099602052600160405f2055610ab7610ab1368886610894565b8561094a565b610e42565b939093610e77565b609a5460408051631b30888b60e31b81526004810191909152949060209086906001600160a01b03168180610afd604482018789610a58565b6001600160a01b039099166024820181905298039134905af1948515610bca575f95610b74575b5084917f9096741026bdd638bcc5cb995f0f00b4574b81f120a23c4a7086347116bf58a191845f5260996020528360405f2055610b6e604051928392602084526020840191610a58565b0390a490565b909194506020813d602011610bc2575b81610b9160209383610872565b81010312610227575193907f9096741026bdd638bcc5cb995f0f00b4574b81f120a23c4a7086347116bf58a1610b24565b3d9150610b84565b6040513d5f823e3d90fd5b63339f7ff560e01b5f5260045ffd5b15610beb57565b60405162461bcd60e51b815260206004820152602b60248201527f496e697469616c697a61626c653a20636f6e7472616374206973206e6f74206960448201526a6e697469616c697a696e6760a81b6064820152608490fd5b90600182811c92168015610c72575b6020831014610c5e57565b634e487b7160e01b5f52602260045260245ffd5b91607f1691610c53565b6033546001600160a01b03163303610c9057565b606460405162461bcd60e51b815260206004820152602060248201527f4f776e61626c653a2063616c6c6572206973206e6f7420746865206f776e65726044820152fd5b603380546001600160a01b039283166001600160a01b0319821681179092559091167f8be0079c531659141344cd1fd0a4f28419497f9722a3daafe3b4186f6b6457e05f80a3565b604051905f8260675491610d2f83610c44565b8083529260018116908115610da15750600114610d55575b610d5392500383610872565b565b5060675f90815290915f51602061107c5f395f51905f525b818310610d85575050906020610d5392820101610d47565b6020919350806001915483858901015201910190918492610d6d565b60209250610d5394915060ff191682840152151560051b820101610d47565b604051905f8260685491610dd383610c44565b8083529260018116908115610da15750600114610df657610d5392500383610872565b5060685f90815290915f51602061109c5f395f51905f525b818310610e26575050906020610d5392820101610d47565b6020919350806001915483858901015201910190918492610e0e565b9060418151145f14610e6e57610e6a91602082015190606060408401519301515f1a90610f8f565b9091565b50505f90600290565b6005811015610f7b5780610e885750565b60018103610ed55760405162461bcd60e51b815260206004820152601860248201527f45434453413a20696e76616c6964207369676e617475726500000000000000006044820152606490fd5b60028103610f225760405162461bcd60e51b815260206004820152601f60248201527f45434453413a20696e76616c6964207369676e6174757265206c656e677468006044820152606490fd5b600314610f2b57565b60405162461bcd60e51b815260206004820152602260248201527f45434453413a20696e76616c6964207369676e6174757265202773272076616c604482015261756560f01b6064820152608490fd5b634e487b7160e01b5f52602160045260245ffd5b7f7fffffffffffffffffffffffffffffff5d576e7357a4501ddfe92f46681b20a08411610fff576020935f9360ff60809460405194855216868401526040830152606082015282805260015afa15610bca575f516001600160a01b03811615610ff757905f90565b505f90600190565b505050505f90600390565b611012610d1c565b8051908115611022576020012090565b505060655480156110305790565b507fc5d2460186f7233c927e7db2dcc703c0e500b653ca82273b7bfad8045d85a47090565b61105d610dc0565b805190811561106d576020012090565b50506066548015611030579056fe9787eeb91fe3101235e4a76063c7023ecb40f923f97916639c598592fa30d6aea2153420d844928b4421650203c77babc8b33d7f2e7b450e2966db0c22097753a2646970667358221220c200e62c1943569abdc343d35bcf05f688834d31918a017cb1f7e958482cb24e64736f6c634300081c0033",
        "linkReferences": {}
    },
    "methodIdentifiers": {
        "act(bytes32,bytes)": "d19834fc",
        "act(bytes32,bytes,bytes)": "fea5ef99",
        "eip712Domain()": "84b0196e",
        "getHashToSign(bytes32,bytes)": "e0839ca1",
        "getPromptId(bytes32)": "3461813d",
        "initialize(string,string,address)": "077f224a",
        "owner()": "8da5cb5b",
        "renounceOwnership()": "715018a6",
        "transferOwnership(address)": "f2fde38b"
    },
    "id": 1
}